:04000000FEEF7FF0A0
:101000000000826A836A846A0F010A6B126B1A6B92
:10101000DE0E876ECF0E886E8968DE0E0C6FCF0EE7
:10102000146F1C690B6B136B1B6B286B09691169BF
:101030001969086910691869080E256F076B066B36
:10104000056B0F6B0E6B0D6B176B166B156B246BB3
:10105000236B226B1200F29A0E01C591F280000EF2
:10106000076E000E086E70EC08F00E01C593F28258
:10107000000E076E000E086E6BEC08F00E01C595B1
:10108000F284000E076E000E086E66EC08F0120087
:101090005AEC08F08280828A8388838A4AEF08F0BB
:1010A000FEEF7FF0600E0E01D36FD56BD76BD96B5F
:1010B000D86B120052EC08F001EC08F02BEC08F0B1
:1010C0001200000EF86E000148EF08F007C001F0B2
:1010D00008C002F0120007C003F008C004F01200BC
:0A10E00007C005F008C006F012007A
:04FFFC0061EF08F0B9
:020000040030CA
:0C0000008FFFFFFF9FFFFFFFFFFFFFFFD0
:00000001FF
